S1050000622870
S1130010AD150311AE150F3053280E3053280F3C85
S1230020C10B81153516020803313028A8190335A919010B291203311F28900B28120334F0
S12300402328063D5128030B291203312928200B281203342D2806395128A81DA91D51281A
S12300602F305128010B2B1203313828900B2A1203343C28063D4928030B2B1203314228B8
S1230080200B2A120334462806394928AA1DAB1DAC19080B2C1203305128AA1DAB1DAC1DF7
S12300A02F3C010BB9154B305828CB3058284B3CD2305D2852305D28523C2E118315AD1149
S12300C02D110D005C21000B391703356B28B91D08211421BA20000B381703356328CB3CFC
S12300E0CF1DB721CC3F8E3F0639863C063E863E063DB01DB72186318328B019650B301292
S123010003307A288528B01D7A28010BB01586359728A121C80B3012033095288F3C8E3847
S1230120C80BB415B11DB31DAE28B0198728000B301703358728B01BB721000B30170331D1
S123014087280D380B3E89398F3C8E38000000000B0000000000010BB0158728010BB515AA
S1230160B81D0D3C0B3A893D8E3C8F3CCC3B8E3B63280C00231624170335D428FF0BA31FE2
S12301800330A41B231624170331D8280B32CE280D380B3E030BA315A41DD3280D3C0B3AF0
S12301A0280BA315A41D0729010BA315A41D07290B320329251697150331DF28E5281716E5
S12301C001080331E428EA28F7280634F728010BA515F7280630F028A51DA619A71DF728B1
S12301E0A719C80B27120330F728A71DA61D030B261203300729A61DA71D020BB715030B3F
S1230200B5152F38072906300729010BB8150C003516010803310E29063D1329351602089B
S12302200331132913290C00B2190A0B321203305029B21D31169715033C1714B115863189
S1230240222931380F0BB11E31160F0803312B29010BB3153029000B311703313029B31D3A
S1230260000B331703314029C90B341203343929B4193416C80803315029010BB8155029EF
S1230280150B341203304F29C80B341203344F29B519040B351203304F29010BB515B41D0B
S12302A00C00B01DFF0BB115010BB315B21DB41D010BB815B51D0C008E3F772151216A2104
S12302C06421B7218E3B0C00050BC115C10B81150E380C00861DC61DFF0B8D15FF0B8B1572
S12302E08C1DC6398D3D46380D3C0B3A0C00400B8415300B8715841B801D871A7B29871D90
S12303000C009A151616991519161A170335A029170B9B15020B9C151B169D151C169E158B
S1230320FF0B9B1F03309C1B1D161E1703359A2900008C29FF0B991F03309A1B0E0084298E
S12303400C005B0BA115110BA2152116971522169815FF0B171FA115FF0BA21518160334BA
S12303601818A21F171618170331A5290C00BB0B9F15010BA0151F16971520169815FF0B15
S11D0380171F9F15FF0BA015181603341818A01F171618170331BB290C00E2
S3050000506248
S903FFFFFE
