S10500002A28A8
S1130010A5150311A6150F3014280E3014280F3C13
S1230020C10B8115010BB7154B302028CB3020284B3CB8191D0B381203302028CB3CCF1D44
S1230040D230252852302528523C26118315A51125110D000823000B371703353328B71D3D
S1230060D320BB227F20000B361703352B28CB3CCF1D4B23CC3F8E3F863C063E863E063DE4
S1230080A81D4B2386314A28A819650B2812033041284C28A81D4128010BA81586355E284D
S12300A03523C80B281203305C288F3C8E38C80BAC15A91DAB1D7528A8194E28000B28174F
S12300C003354E28A81B4B23000B281703314E280D380B3E89398F3C8E38000000000B005D
S12300E000000000010BA8154E28B61D0D3C0B3A893D8E3C8F3CCC3B8E3B2B280C001D169F
S12301001E1703359928FF0B9D1F03309E1B1D161E1703319D280B3293280D380B3E030B06
S12301209D159E1D98280D3C0B3A280B9D159E1DD228010B9D159E1DD2280B32CE281F168B
S123014097150331A428AA28171601080331A928AF28C4280634C428010B9F15C428063017
S1230160B6289F1DA019A11DA21DC428A1190335A219000B22120331BF28C80B211203307F
S1230180C428A11DA21DA01D030B20120330D228A01DA11DA21D020BB515D2280630D2288D
S12301A0010BB6150C00000B32170331E228971D863497191716981518130330063E0334F5
S12301C0063AE328063E321601080331F228971D863497191716981518130330863E03349C
S12301E0863AF328863E971D863497191716000B0335010B9715981517130330863C033413
S123020086382D16010803310829400BB315A92A2D16020803312929A3190335A4192316C8
S12302208908033120292416010803312029A31DA41D2E169715981D010B97101716AE1523
S1230240000B2E1703352629B31DA92A400BB315A92A000B2D1703315229B019330B3012F3
S12302600330A92AB01D000B2F17033143294A0B331203343C29B3194A0B33120330A92A14
S1230280010BAF15A92A2F1601080331A92A020B331203304C29B31B331601080331A92A41
S12302A0AF1DA92A2D16030803318229000B351703356229000B331703316229B51B400B25
S12302C0B315A92A000B33170335A92A3516010803317429000B321703317029B31BA92A38
S12302E0CF1DB81DCB38BA2A000B35170331A92A3216010803317E29B31BA92ACF1DB81D66
S1230300CB38BA2A2D16040803318F29000B321703318D29400BB315A92AB31DA92A2D16AD
S1230320050803319C29000B321703319929B31DA92A400BB315A92A2D1606080331C12971
S1230340A3190335A419231689080331B429241601080331B429A31DA41D2E169715981D93
S1230360010B97101716AE15000B2E170331BC29000B32170335BE29B31DA92A400BB31544
S1230380A92A2D1607080331E629A3190335A419231689080331D929241601080331D929C7
S12303A0A31DA41D2E169715981D010B97101716AE15000B2E170331E129000B321703315A
S12303C0E329B31DA92A400BB315A92A2D1608080331102AA3190335A41923168908033114
S12303E0FA29241601080331FA29A31DA41DAE19030BAE1E000B2E170331072A000B321711
S12304000331042AB31DA92A400BB315A92A000B321703310E2A400BB315A92AB31DA92AA4
S12304202D1609080331412AB019330B30120330A92AB01D321601080331222ACF1DB81D17
S1230440CB38BA2A000B2F170331322A4A0B331203342B2AB3194A0B33120330A92A010B32
S1230460AF15A92A2F1601080331A92A020B331203303B2AB31B331601080331A92AAF1DAF
S1230480A92A2D160A080331722AB019330B30120330A92AB01D000B32170331532ACF1D53
S12304A0B81DCB38BA2A000B2F170331632A4A0B331203345C2AB3194A0B33120330A92AA7
S12304C0010BAF15A92A2F1601080331A92A020B331203306C2AB31B331601080331A92ADE
S12304E0AF1DA92A2D160B080331A92A3316971517164A09B415000B32170331A42AB0199F
S1230500330B30120330A92AB01D000B2F170331952A4A0B331203348E2AB3194A0B331251
S12305200330A92A010BAF15A92A2F1601080331A92A020B331203309E2AB31B331601084C
S12305400331A92AAF1DA92A3416CF15B81DCB38BA2AB119311602080331B62A32169715E4
S1230560981D010B97101716B215B11D3316CF15B81DCB380C00AA190A0B2A120330FC2ACF
S1230580AA1D29169715033C1714A9158631C92A29380F0BA91E29160F080331D22A010BFF
S12305A0AB15D72A000B29170331D72AAB1D000B2B170331E72AC90B2C120334E02AAC1984
S12305C02C16C8080331FC2A010BB615FC2A150B2C120330FB2AC80B2C120334FB2AAD19C5
S12305E00C0B2D120330F62A010BAD15A31DA41DAE1DAF1DB01DAC1D0C00A81DFF0BA91539
S1230600010BAB15AA1DAC1D010BB615AD1D0C008E3F2B23FD221E23182311234B238E3BAC
S12306200C00C81DC71D7C0BCE15C00BCC150C00050BC115C10B81150E380C00861DC61D9F
S1230640FF0B8D15FF0B8B158C1DC6398D3D46380D3C0B3A0C00400B8415300B8715841B5C
S1230660801D871A2F2B871D0C005B0B9B15110B9C151B1697151C169815FF0B171F9B159F
S1230680FF0B9C151816033418189C1F171618170331392B0C00BB0B9915010B9A151916ED
S12306A097151A169815FF0B171F9915FF0B9A151816033418189A1F1716181703314F2BAE
S10506C00C0028
S3050000506248
S903FFFFFE
