S10500006B2867
S1130010A8150311A9150F3066280E3066280F3C69
S1230020C10B81153016020803313028A2190335A319010B231203311F28900B221203340D
S12300402328063D6428030B231203312928200B221203342D2806396428A21DA31D6428F9
S12300603016030803314E28A4190335A519000B251203313D28C80B241203344128063D07
S12300806428010B251203314728900B241203344B2806396428A41DA51D64282A306428AF
S12300A03016040803316428A6190335A719063D010B271203315E28900B2612033064289F
S12300C00639A61DA71D2A3C010BB21529118315A81128110D006421000B3217033574289F
S12300E0B21D0F211B21C520000B311703356C288E3F0639863C063E863EAB1D010B961568
S1230100000B8D2186318A28AB19650B2B1203307E288C28AB1D7E28010BAB158635A128FD
S12301200A0B9615000B8D21C80B2B1203309F288F3C8E38C80BAF15AC1DAE1DBB28AB19D5
S12301408E28000B2B1703358E28AB1B010B9615000B8D21000B2B1703318E280D380B3AB3
S123016089398F3C8E38000000000B0000000000010BAB158E28B11D2A380D3C0B3A893D17
S12301808E3C8F3C8E3B6C280C001D161E170335DF28FF0B9D1F03309E1B1D161E17033168
S12301A0E3280B32D9280D380B3E030B9D159E1DDE280D3C0B3A280B9D159E1D0E29010B72
S12301C09D159E1D0E290B320A291F1698150331EA28F028181601080331EF28F5280229FD
S12301E006340229010B9F1502290630FB289F1DA019A11D0229A119960B21120330022908
S1230200A11DA01D050B201203300E29A01DA11D2A380E2906300E29010BB1150C0030160E
S1230220010803311529063D1A293016020803311A291A290C00AD190A0B2D1203305829D5
S1230240AD1D2C169815033C1814AC15863129292C380F0BAC1E2C160F0803313229010B70
S1230260AE153729000B2C1703313729AE1D000B2E1703314729C90B2F1203344029AF1939
S12302802F16C80803315829010BB1155829150B2F1203305729C80B2F1203345729B01995
S12302A02A38050B301203305729010BB015AF1D0C00AB1DFF0BAC15010BAE15AD1DAF1D32
S12302C0010BB115B01D0C008E3F8321592175216F21010B9615000B8D218E3B0C00050B09
S12302E0C115C10B81150E380C00040B8615C61DFF0B8D15FF0B8B158C1DC6398D3D46389D
S12303000D3C0B3A0C00400B8415300B8715841B801D871A8729871D0C00981516169715C2
S1230320171618170335AC29170B9915020B9A1519169B151A169C15FF0B991F03309A1B5A
S11D03401B161C170335A62900009829FF0B971F0330981B0E0090290C00FA
S3050000506248
S903FFFFFE
